:1000000045C0000060C000005EC000005CC0000091
:100010005AC0000058C0000056C0000054C0000084
:1000200052C0000050C000004EC000004CC0000094
:100030004AC00000F7C0000046C0000044C00000F5
:1000400042C0000040C000003EC000003CC00000B4
:100050003AC0000038C0000036C0000034C00000C4
:1000600032C0000030C000002EC000002CC00000D4
:100070002AC0000028C0000026C0000024C00000E4
:1000800022C0000020C000001EC0000011241FBEBE
:10009000CFEFD0E4DEBFCDBF11E0A0E0B1E0EAE7F2
:1000A000F3E000E00BBF02C007900D92A830B1074B
:1000B000D9F721E0A8E0B1E001C01D92A533B20755
:1000C000E1F70FD158C19CCF99232CF082309105D4
:1000D00064F0029729F01092090180E090E0089501
:1000E0001092090181E090E0089581E08093090178
:1000F00082E090E0089581309105A1F01CF4892BF5
:1001000059F005C08230910599F0039729F01092BB
:10011000080180E090E0089582E08093080181E08A
:1001200090E0089584E08093080182E090E00895D3
:1001300088E08093080183E090E0089590910901A0
:1001400080910801892B85B980E090E008958BE0CB
:10015000809381008DE790E09093890080938800E0
:1001600082E080936F00109285001092840080914D
:10017000000190910101A0910201B09103018093CF
:100180000A0190930B01A0930C01B0930D018FB75E
:1001900080688FBF0895EF92FF920F931F93CF93C4
:1001A000DF93CEE0D1E00F2EF2E3EF2EF1E0FF2E51
:1001B000F02D8E014E815F81688579858A819B81D2
:1001C000AC81BD81481759076A077B0758F0EA855B
:1001D000FB85888199810995998388831E821F8276
:1001E00018861986F801468157816085718580914E
:1001F000040190910501A0910601B0910701840FBF
:10020000951FA61FB71F86839783A087B1872C965B
:10021000CE15DF0571F6DF91CF911F910F91FF9001
:10022000EF9008951F920F920FB60F9211240BB604
:100230000F922F933F934F935F936F937F938F937F
:100240009F93AF93BF93EF93FF9380910A01909197
:100250000B01A0910C01B0910D010197A109B10909
:1002600080930A0190930B01A0930C01B0930D01B0
:10027000892B8A2B8B2B89F48EDF80910001909142
:100280000101A0910201B091030180930A019093B2
:100290000B01A0930C01B0930D01FF91EF91BF9161
:1002A000AF919F918F917F916F915F914F913F910E
:1002B0002F910F900BBE0F900FBE0F901F901895AF
:1002C00060930001709301018093020190930301F8
:1002D00060930A0170930B0180930C0190930D01C0
:1002E000089511B88FEF82B984B915B8EEE0F1E046
:1002F00081E090E09183808348EE53E060E070E01D
:100300004283538364837583168217821086118615
:1003100024E630E033872287958784878CE291E05A
:10032000A0E0B0E086879787A08BB18B128A138AF2
:10033000148A158A8BE790E0978B868B118E108E2E
:1003400084E690E0A0E0B0E0828F938FA48FB58F19
:10035000168E178E10A211A28EE990E093A382A3AD
:10036000609104017091050180910601909107014F
:0A037000A7DFEDDEFFCFF894FFCF0A
:08037A00010000006400000016
:00000001FF
