S01C000065636172723032345F6C616231305F70617274332E737265632D
S113000045C0000060C000005EC000005CC000008D
S11300105AC0000058C0000056C0000054C0000080
S113002052C0000050C000004EC000004CC0000090
S11300304AC0000029C1000046C0000044C00000BE
S113004042C0000040C000003EC000003CC00000B0
S11300503AC0000038C0000036C0000034C00000C0
S113006032C0000030C000002EC000002CC00000D0
S11300702AC0000028C0000026C0000024C00000E0
S113008022C0000020C000001EC0000011241FBEBA
S1130090CFEFD0E4DEBFCDBF11E0A0E0B1E0E8E2F5
S11300A0F8E000E00BBF02C007900D92A830B10742
S11300B0D9F721E0A8E0B1E001C01D92A535B2074F
S11300C0E1F7CCD1AFC39CCF99232CF082309105BA
S11300D064F0029729F010920E0180E090E00895F8
S11300E010920E0181E090E0089581E080930E016A
S11300F082E090E0089581309105A1F01CF4892BF1
S113010059F005C08230910599F0039729F01092B7
S11301100D0180E090E0089582E080930D0181E07C
S113012090E0089584E080930D0182E090E00895CA
S113013088E080930D0183E090E0089590910E0192
S113014080910D01892B85B980E090E0089520B15C
S113015030E02095309522FB222720F9322F20937E
S11301605101009719F0019749F010C041E020E0D7
S1130170311101C040E0842F922F0AC041E020E0F9
S1130180311101C040E0842F922F02C080E090E042
S1130190009721F08130910521F008C010920C01E4
S11301A0089521E020930C012C9A089510920C01DB
S11301B008958BE0809381008DE790E0909389000F
S11301C08093880082E080936F00109285001092E3
S11301D084008091000190910101A0910201B091ED
S11301E0030180930F0190931001A0931101B09328
S11301F012018FB780688FBF0895EF92FF920F931B
S11302001F93CF93DF93C3E1D1E00F2EFFE4EF2ED2
S1130210F1E0FF2EF02D8E014E815F816885798596
S11302208A819B81AC81BD81481759076A077B0786
S113023058F0EA85FB85888199810995998388839B
S11302401E821F8218861986F801468157816085AF
S113025071858091040190910501A0910601B091EE
S11302600701840F951FA61FB71F86839783A08756
S1130270B1872C96CE15DF0571F6DF91CF911F91D2
S11302800F91FF90EF9008951F920F920FB60F9267
S113029011240BB60F922F933F934F935F936F9359
S11302A07F938F939F93AF93BF93EF93FF9380912B
S11302B00F0190911001A0911101B09112010197C9
S11302C0A109B10980930F0190931001A09311012A
S11302D0B0931201892B8A2B8B2B89F48EDF8091AA
S11302E0000190910101A0910201B091030180935A
S11302F00F0190931001A0931101B0931201FF918B
S1130300EF91BF91AF919F918F917F916F915F9189
S11303104F913F912F910F900BBE0F900FBE0F90F6
S11303201F9018956093000170930101809302015E
S11303309093030160930F01709310018093110156
S1130340909312010895CF92DF92EF92FF926B0186
S11303507C019B01AC0160910801709109018091BD
S11303600A0190910B01E5D0882309F452C020E0E2
S113037030E0A901C701B601DCD0811106C0E1E972
S1130380F0E080818870808305C0E1E9F0E080813D
S11303908360808328E539E344E75FE3C701B6015E
S11303A0C8D088233CF48FEF9FEF909399008093FB
S11303B0980023C020E034E244EF56E4C701B601BC
S11303C0CAD118162CF4109299001092980015C0F6
S11303D020E030E040E053E4C701B601C0D19B0106
S11303E0AC0160E074E284EF9AE4A7D00ED16150CE
S11303F0710970939900609398001092950010927F
S11304009400C0920801D0920901E0920A01F0928E
S11304100B01FF90EF90DF90CF900895019721F4A6
S113042080915101811107C060E070E0CB018BDF46
S113043081E090E0089564E17EE483E893E483DF5F
S113044082E090E0089580E4809390008BE08093B4
S1130450910060E070E0CB0176CF089511B88FEF82
S113046082B984B915B8E3E1F1E081E090E09183C9
S1130470808348EE53E060E070E0428353836483FA
S11304807583168217821086118624E630E033873E
S11304902287958784874CE251E060E070E04687CC
S11304A05787608B718B128A138A148A158A2BE7FB
S11304B030E0378B268B118E108E44E650E060E0DE
S11304C070E0428F538F648F758F168E178E10A233
S11304D011A22EE930E033A322A315A214A242E014
S11304E050E060E070E046A357A360A771A712A68E
S11304F013A614A615A627EA30E037A726A791ABC2
S113050080AB42AB53AB64AB75AB16AA17AA10AE63
S113051011AE8EE092E093AF82AF609104017091CE
S113052005018091060190910701FCDE8CDF41DE1C
S1130530FFCF9CD008F481E008950CD0D2C0CAD07B
S113054040F0C1D030F021F45F3F19F0B3C0511135
S1130550FCC0B6C0D7D098F39923C9F35523B1F39F
S1130560951B550BBB27AA2762177307840738F01E
S11305709F5F5F4F220F331F441FAA1FA9F333D07D
S11305800E2E3AF0E0E830D091505040E695001C31
S1130590CAF729D0FE2F27D0660F771F881FBB1FED
S11305A0261737074807AB07B0E809F0BB0B802DC7
S11305B0BF01FF2793585F4F2AF09E3F510568F013
S11305C079C0C3C05F3FECF3983EDCF38695779522
S11305D06795B795F7959F5FC9F7880F911D969515
S11305E0879597F90895E1E0660F771F881FBB1F71
S11305F0621773078407BA0720F0621B730B840B1E
S1130600BA0BEE1F88F7E095089504D06894B111F1
S11306109CC008957FD088F09F5790F0B92F9927F8
S1130620B751A0F0D1F0660F771F881F991F1AF0F9
S1130630BA95C9F712C0B13081F086D0B1E00895FF
S113064083C0672F782F8827B85F39F0B93FCCF380
S1130650869577956795B395D9F73EF490958095EF
S1130660709561957F4F8F4F9F4F0895990F0008A4
S1130670550FAA0BE0E8FEEF16161706E807F90770
S1130680C0F012161306E407F50798F0621B730B0B
S1130690840B950B39F40A2661F0232B242B252B8C
S11306A021F408950A2609F4A140A6958FEF811D2F
S11306B0811D089597F99F6780E870E060E00895D0
S11306C09FEF80EC089500240A9416161706180666
S11306D00906089500240A94121613061406050642
S11306E00895092E0394000C11F4882352F0BB0FD3
S11306F040F4BF2B11F460FF04C06F5F7F4F8F4F36
S11307009F4F089557FD9058440F551F59F05F3F70
S113071071F04795880F97FB991F61F09F3F79F01F
S113072087950895121613061406551FF2CF4695A1
S1130730F1DF08C0161617061806991FF1CF869523
S11307407105610508940895E894BB276627772707
S1130750CB0197F908958ADF08F48FEF08950BD041
S1130760C0CFB1DF28F0B6DF18F0952309F0A2CF8F
S1130770A7CF1124EACFC6DFA0F3959FD1F3950F3D
S113078050E0551F629FF001729FBB27F00DB11D11
S1130790639FAA27F00DB11DAA1F649F6627B00DA1
S11307A0A11D661F829F2227B00DA11D621F739F8A
S11307B0B00DA11D621F839FA00D611D221F749F98
S11307C03327A00D611D231F849F600D211D822FDF
S11307D0762F6A2F11249F5750408AF0E1F0882326
S11307E04AF0EE0FFF1FBB1F661F771F881F915033
S11307F05040A9F79E3F510570F05CCFA6CF5F3FF4
S1130800ECF3983EDCF3869577956795B795F79565
S1130810E7959F5FC1F7FE2B880F911D96958795ED
S10B082097F90895F894FFCF45
S10B08280100000002000000C1
S9030000FC
