:1000000045C0000053C0000051C000004FC00000B8
:100010004DC000004BC0000049C0000047C00000B8
:1000200045C0000043C0000041C000003FC00000C8
:100030003DC000003BC0000039C0000037C00000D8
:1000400035C0000033C0000031C000002FC00000E8
:100050002DC000002BC0000029C0000027C00000F8
:1000600025C0000023C0000021C000001FC0000008
:100070001DC000001BC0000019C0000017C0000018
:1000800015C0000013C0000011C0000011241FBEE5
:10009000CFEFD0E4DEBFCDBF21E0A0E0B1E001C0F2
:1000A0001D92A130B207E1F7BCD023C1A9CFEF92D6
:1000B0000F93CF93DF93CDB7DEB728970FB6F894A1
:1000C000DEBF0FBECDBF9A8389837C836B834D8354
:1000D0002E830F83E88680910001882F90E0823084
:1000E000910509F43EC0833091052CF4009759F036
:1000F0000197C9F066C08330910509F450C0049798
:1001000009F456C05EC08D81882351F48E81882306
:1001100039F48F81882321F081E08093000153C05E
:100120001092000150C08D81882351F48E81882364
:1001300039F48F81882321F081E08093000110C081
:100140008D81882351F48E81882339F48F8188230F
:1001500021F482E08093000103C01092000133C0BB
:1001600032C08D81882351F48E81882339F48F81A8
:10017000882321F482E08093000110C08D818823C0
:1001800051F48E81882339F08F81882321F483E014
:100190008093000103C01092000115C014C088852F
:1001A000882311F080E001C084E0809300010BC03F
:1001B0008885882311F080E001C084E080930001ED
:1001C00002C010920001209100018B819C81FC01F2
:1001D000208380910001882F90E099238CF0843057
:1001E00091051CF0049731F00BC089819A81FC01C4
:1001F00010820BC089819A8121E0FC01208305C017
:1002000089819A81FC0110820000000028960FB6B7
:10021000F894DEBF0FBECDBFDF91CF910F91EF906D
:100220000895EF920F93CF93DF9300D000D000D0CA
:10023000CDB7DEB781E290E0FC01108282E290E06F
:100240002FEFFC01208384E290E02FEFFC0120835C
:1002500085E290E0FC01108287E290E02FEFFC0144
:10026000208388E290E0FC01108219821A821B82AE
:100270001C821D821E8280E290E0FC0180818170E0
:10028000898380E290E0FC018081882F90E0827079
:100290009927959587958A8380E290E0FC0180817B
:1002A000882F90E0847099279595879595958795E7
:1002B0008B8380E290E0FC018081881F8827881F63
:1002C0008C831D828FEF8E83BE016A5F7F4FCE01CC
:1002D0000596EC800B812A814981E9DE85E290E078
:1002E0002D81FC01208388E290E02E81FC01208397
:0602F000C2CFF894FFCF1D
:00000001FF
