S01B00006E7068616D3031345F6C6162395F70617274332E7372656350
S113000045C0000060C000005EC000005CC000008D
S11300105AC0000058C0000056C0000054C0000080
S113002052C0000050C000004EC000004CC0000090
S11300304AC0000048C0000046C0000044C00000A0
S113004042C0000040C000003EC000003CC00000B0
S11300503AC0000038C0000036C0000034C00000C0
S113006032C0000030C000002EC000002CC00000D0
S11300702AC0000028C0000026C0000024C00000E0
S113008022C0000020C000001EC0000011241FBEBA
S1130090CFEFD0E4DEBFCDBF11E0A0E0B1E0E4EBF0
S11300A0F7E000E00BBF02C007900D92A036B10745
S11300B0D9F721E0A0E6B1E001C01D92A936B2074C
S11300C0E1F7AED175C39CCFCF92DF92EF92FF924E
S11300D06B017C019B01AC01609160017091610135
S11300E08091620190916301ADD1882309F452C0DB
S11300F020E030E0A901C701B601A4D1811106C0F6
S1130100E1E9F0E080818870808305C0E1E9F0E0F6
S113011080818360808328E539E344E75FE3C70196
S1130120B60190D188233CF48FEF9FEF9093990010
S11301308093980023C020E034E244EF56E4C701E2
S1130140B601CFD218162CF4109299001092980090
S113015015C020E030E040E053E4C701B601C5D249
S11301609B01AC0160E074E284EF9AE46FD1D6D1D4
S113017061507109709399006093980010929500F2
S113018010929400C0926001D0926101E0926201E9
S1130190F0926301FF90EF90DF90CF90089580E498
S11301A0809390008BE08093910060E070E0CB013D
S11301B08BCF08958BE0809381008DE790E090933E
S11301C089008093880082E080936F0010928500FC
S11301D0109284008091000190910101A09102018C
S11301E0B09103018093640190936501A09366012B
S11301F0B09367018FB780688FBF08956093000143
S11302007093010180930201909303016093640150
S113021070936501809366019093670108958F92AE
S11302209F92AF92BF92CF92DF92EF92FF920F9381
S11302301F93CF93DF93CDB7DEB7C85BD1090FB659
S1130240F894DEBF0FBECDBF81E79DE9AEEAB3E40B
S113025089839A83AB83BC830F2EC12CD12CFCEDF4
S1130260EF2EF3E4FF2EF02DCD82DE82EF82F886AE
S113027089879A87AB87BC878D879E87AF87B88B22
S113028044EA50EF66EF73E4498B5A8B6B8B7C8B9B
S11302908D8B9E8BAF8BB88F04EA10ED24EA33E488
S11302A0098F1A8F2B8F3C8F8D8F9E8FAF8FB8A3A2
S11302B044EA50ED62E873E449A35AA36BA37CA318
S11302C08DA39EA3AFA3B8A789A79AA7ABA7BCA7E2
S11302D00F2EFFE18F2EF5ED9F2EF2E1AF2EF4E409
S11302E0BF2EF02D8DA69EA6AFA6B8AA49AB5AABD9
S11302F06BAB7CABCDAADEAAEFAAF8AE89AF9AAFFE
S1130300ABAFBCAF21964CAF5DAF6EAF7FAF219763
S11303100F2EF1E7CF2EFDE9DF2EFEE2EF2EF4E4FF
S1130320FF2EF02D2596CCAEDDAEEEAEFFAE2597BA
S113033029968CAF9DAFAEAFBFAF29972D960CAF6A
S11303401DAF2EAF3FAF2D9761960CAF1DAF2EAFF3
S11303503FAF619765964CAF5DAF6EAF7FAF65976A
S113036040E050E064EC73E469964CAF5DAF6EAF6F
S11303707FAF69976D968CAF9DAFAEAFBFAF6D97F2
S11303806E018DE5C80ED11C8CE5E4E0F1E0D601E8
S113039001900D928A95E1F702DF60E070E0CB01F5
S11303A093DE8E010F5F1F4F7601F8016191719109
S11303B0819191918F0188DEF70181909190A190B4
S11303C0B1907F016091680170E080E090E0D9D045
S11303D0A501940137D08823ACF31092680160E042
S11303E070E0CB0171DE809168018639E0F31092F0
S11303F068010C151D05C9F6C854DF4F0FB6F894F3
S1130400DEBF0FBECDBFDF91CF911F910F91FF9043
S1130410EF90DF90CF90BF90AF909F908F90089512
S113042011B88FEF82B984B915B8C0B1C17061E059
S113043070E080E090E0E2DEBDDEC11101C0FFCFDC
S1130440EEDEFBCFD9D008F481E008950CD00FC1C3
S113045007D140F0FED030F021F45F3F19F0F0C036
S1130460511139C1F3C014D198F39923C9F3552319
S1130470B1F3951B550BBB27AA2762177307840793
S113048038F09F5F5F4F220F331F441FAA1FA9F349
S113049033D00E2E3AF0E0E830D091505040E6953B
S11304A0001CCAF729D0FE2F27D0660F771F881F9C
S11304B0BB1F261737074807AB07B0E809F0BB0B8B
S11304C0802DBF01FF2793585F4F2AF09E3F5105AF
S11304D068F0B6C000C15F3FECF3983EDCF386954C
S11304E077956795B795F7959F5FC9F7880F911D25
S11304F09695879597F90895E1E0660F771F881F11
S1130500BB1F621773078407BA0720F0621B730BC3
S1130510840BBA0BEE1F88F7E095089504D0689415
S1130520B111D9C00895BCD088F09F5790F0B92F6D
S11305309927B751A0F0D1F0660F771F881F991F34
S11305401AF0BA95C9F712C0B13081F0C3D0B1E046
S11305500895C0C0672F782F8827B85F39F0B93F56
S1130560CCF3869577956795B395D9F73EF4909536
S11305708095709561957F4F8F4F9F4F0895E894B4
S113058009C097FB3EF490958095709561957F4FD7
S11305908F4F9F4F9923A9F0F92F96E9BB27939585
S11305A0F695879577956795B795F111F8CFFAF495
S11305B0BB0F11F460FF1BC06F5F7F4F8F4F9F4FC6
S11305C016C0882311F096E911C0772321F09EE824
S11305D0872F762F05C0662371F096E8862F70E08A
S11305E060E02AF09A95660F771F881FDAF7880F64
S11305F09695879597F90895990F0008550FAA0BBA
S1130600E0E8FEEF16161706E807F907C0F0121621
S11306101306E407F50798F0621B730B840B950B24
S113062039F40A2661F0232B242B252B21F4089579
S11306300A2609F4A140A6958FEF811D811D089516
S113064097F99F6780E870E060E008959FEF80EC81
S1130650089500240A941616170618060906089524
S113066000240A9412161306140605060895092E8A
S11306700394000C11F4882352F0BB0F40F4BF2BF9
S113068011F460FF04C06F5F7F4F8F4F9F4F089539
S113069057FD9058440F551F59F05F3F71F047952F
S11306A0880F97FB991F61F09F3F79F08795089514
S11306B0121613061406551FF2CF4695F1DF08C033
S11306C0161617061806991FF1CF86957105610550
S11306D008940895E894BB2766277727CB0197F9F8
S11306E008958ADF08F48FEF08950BD0C0CFB1DFEF
S11306F028F0B6DF18F0952309F0A2CFA7CF112474
S1130700EACFC6DFA0F3959FD1F3950F50E0551FB4
S1130710629FF001729FBB27F00DB11D639FAA2752
S1130720F00DB11DAA1F649F6627B00DA11D661FA1
S1130730829F2227B00DA11D621F739FB00DA11DC2
S1130740621F839FA00D611D221F749F3327A00D7C
S1130750611D231F849F600D211D822F762F6A2F18
S113076011249F5750408AF0E1F088234AF0EE0F9D
S1130770FF1FBB1F661F771F881F91505040A9F7AA
S11307809E3F510570F05CCFA6CF5F3FECF3983EDF
S1130790DCF3869577956795B795F795E7959F5F11
S11307A0C1F7FE2B880F911D9695879597F90895AB
S10707B0F894FFCFE7
S11307B4010000000000FA4300007A4300007A4379
S11307C400007A4300007A4300007A4300007A432D
S11307D40000FA4300007A4300007A4300007A439D
S11307E400007A4300007A4300007A4300007A430D
S11307F400007A4300007A4300007A4300007A43FD
S113080400007A4300007A4300007A4300803B44AA
S9030000FC
