S01B000065636172723032345F6C6162375F70617274312E737265635A
S113000045C0000060C000005EC000005CC000008D
S11300105AC0000058C0000056C0000054C0000080
S113002052C0000050C000004EC000004CC0000090
S11300304AC00000ACC0000046C0000044C000003C
S113004042C0000040C000003EC000003CC00000B0
S11300503AC0000038C0000036C0000034C00000C0
S113006032C0000030C000002EC000002CC00000D0
S11300702AC0000028C0000026C0000024C00000E0
S113008022C0000020C000001EC0000011241FBEBA
S1130090CFEFD0E4DEBFCDBF11E0A0E0B1E0EAE7EE
S11300A0F3E000E00BBF02C007900D92A430B1074B
S11300B0D9F721E0A4E0B1E001C01D92AB30B20752
S11300C0E1F72CD158C19CCF181619065CF008959D
S11300D0000021503109E1F74F5F5F4F8417950706
S11300E019F4089540E050E027E033E0F1CF5E9842
S11300F088B95F9A00005F9882E090E0E5CF0895A8
S113010081E0F5CF0895813118F48158F0CF089536
S11301108155EDCF089584E690E0D6DF88E3E7DFEC
S113012086E0E5DF8FE0E3DF81E0E1DF8AE090E075
S1130130CBCF08955E9A88B95F9A00005F9881E0FA
S113014090E0C2CF08958BE0809381008DE790E02A
S1130150909389008093880082E080936F001092CE
S11301608500109284008091000190910101A0917A
S11301700201B09103018093050190930601A093BD
S11301800701B09308018FB780688FBF08951F924D
S11301900F920FB60F9211248F939F93AF93BF9337
S11301A08091050190910601A0910701B091080189
S11301B00197A109B1098093050190930601A093C9
S11301C00701B0930801892B8A2B8B2B99F481E0CA
S11301D0809309018091000190910101A091020195
S11301E0B09103018093050190930601A093070148
S11301F0B0930801BF91AF919F918F910F900FBE63
S11302000F901F90189560930001709301018093E3
S1130210020190930301609305017093060180939A
S1130220070190930801089590910A01923029F1F1
S113023028F4992349F0913069F055C0933079F14D
S1130240943009F43EC04FC081E080930A011092BB
S1130250040153C0611107C0882309F44EC082E031
S113026080930A0152C0811104C083E080930A0183
S113027047C084E080930A014EC0611106C0811119
S113028044C081E080930A0138C0811104C083E036
S113029080930A0135C084E080930A013CC0611157
S11302A00AC0811104C081E080930A0126C082E063
S11302B080930A012AC0882319F184E080930A01FB
S11302C02AC061110AC0811104C081E080930A012F
S11302D014C082E080930A0118C081111CC083E01D
S11302E080930A010DC010920A0107C08F5F8093AA
S11302F0040103C081508093040180910401089596
S1130300809104018111F6CFF6CF809104018930E8
S113031068F389E0ECCF10920401EFCF11B88FEFAE
S113032082B987B918B88AB91BB8F5DE81E0809321
S11303300A0168EE73E080E090E065DF04DFC1E06D
S113034080B160B170E060957095669561708C279E
S113035081706ADFD82FD4DE8C2FD5DE80E38D0F39
S1130360E9DE80B1809585B9809109018823E1F3A4
S10D037010920901E5CFF894FFCFC5
S107037A010000007A
S9030000FC
