:100000008AC00000A5C00000A3C00000A1C000007D
:100010009FC000009DC000009BC0000099C0000070
:1000200097C0000095C0000093C0000091C0000080
:100030008FC0000002C100008BC0000089C000001A
:1000400087C0000085C0000083C0000081C00000A0
:100050007FC000007DC000007BC0000079C00000B0
:1000600077C0000075C0000073C0000071C00000C0
:100070006FC000006DC000006BC0000069C00000D0
:1000800067C0000065C0000063C00000B00102024C
:100090000202020202020202020202020202020240
:1000A0000202020202020202020202020202020230
:1000B0000202020202020202020202020202020220
:1000C0000202020202020202020202020202020210
:1000D0000202FD0102020202020202020202020206
:1000E000F40102020202020202020202F901B30159
:1000F000B801BD01C201C701CC01D101D601DB01AC
:100100000202020202020202020202020202E001F2
:10011000E501EA01EF0111241FBECFEFD0E4DEBFFD
:10012000CDBF11E0A0E0B1E0E6E6F4E000E00BBFF7
:1001300002C007900D92A430B107D9F721E0A4E0E6
:10014000B1E001C01D92A930B207E1F75ED189C1CB
:1001500057CF181619065CF0089500002150310998
:10016000E1F74F5F5F4F8417950719F4089540E05A
:1001700050E027E033E0F1CF10988BB9119A0000DE
:10018000119882E090E0E5CF089581E0F5CF0895E1
:10019000813118F48158F0CF08958155EDCF08953D
:1001A00084E690E0D6DF88E3E7DF86E0E5DF8FE0F6
:1001B000E3DF81E0E1DF8AE090E0CBCF0895109AA1
:1001C0008BB9119A0000119881E090E0C2CF089598
:1001D00060930001709301018093020190930301E9
:1001E00060930401709305018093060190930701C9
:1001F00008958BE0809381008DE790E090938900D3
:100200008093880082E080936F00109285001092A6
:1002100084008091000190910101A0910201B091B0
:1002200003018093040190930501A0930601B0930C
:1002300007018FB780688FBF08951F920F920FB686
:100240000F9211248F939F93AF93BF9380910401DA
:1002500090910501A0910601B09107010197A109B4
:10026000B1098093040190930501A0930601B09316
:100270000701892B8A2B8B2B99F481E0809308014D
:100280008091000190910101A0910201B0910301C0
:100290008093040190930501A0930601B093070198
:1002A000BF91AF919F918F910F900FBE0F901F90B4
:1002B00018958FEE88B90000309B29C0319B29C06A
:1002C000329B29C0339B29C08FED88B90000309B39
:1002D00026C0319B26C0329B26C0339B26C08FEBA5
:1002E00088B90000309B23C0319B23C0329B23C0C0
:1002F000339B23C08FE788B90000309B20C0319B1F
:1003000020C0329B20C0339B20C080E0089581E351
:10031000089584E3089587E308958AE2089582E3C7
:10032000089585E3089588E3089580E3089583E3BD
:10033000089586E3089589E3089583E2089581E4AA
:10034000089582E4089583E4089584E4089590E094
:100350008534910508F056C0FC01EA5BFF4F78C078
:100360008FE185B9089581E085B981E328CF0895AB
:1003700082E085B982E323CF089583E085B983E3E2
:100380001ECF089584E085B984E319CF089585E0F0
:1003900085B985E314CF089586E085B986E30FCF4C
:1003A000089587E085B987E30ACF089588E085B985
:1003B00088E305CF089589E085B989E300CF0895E2
:1003C0008AE085B981E4FBCE08958BE085B982E4AB
:1003D000F6CE08958CE085B983E4F1CE08958DE0E2
:1003E00085B984E4ECCE08958EE085B98AE2E7CE43
:1003F000089515B880E3E3CE08958FE085B983E2D0
:10040000DECE08958BE185B9089583E081B98CEF44
:1004100082B98FEF84B915B890EF97B99FE098B97A
:100420008AB91BB8BDDE64E670E080E090E0D0DE03
:10043000E0DEABDE81E0ACDE3CDF8111C82F8C2F2B
:1004400086DF809108018823E1F310920801F1CF43
:10045000EE0FFF1F0024001C0BBE0790F691E02D4D
:060460000994F894FFCF9F
:040466000100000091
:00000001FF
