S01C000065636172723032345F6C616231305F70617274302E7372656330
S113000045C0000060C000005EC000005CC000008D
S11300105AC0000058C0000056C0000054C0000080
S113002052C0000050C000004EC000004CC0000090
S11300304AC00000EEC0000046C0000044C00000FA
S113004042C0000040C000003EC000003CC00000B0
S11300503AC0000038C0000036C0000034C00000C0
S113006032C0000030C000002EC000002CC00000D0
S11300702AC0000028C0000026C0000024C00000E0
S113008022C0000020C000001EC0000011241FBEBA
S1130090CFEFD0E4DEBFCDBF11E0A0E0B1E0E0E5FA
S11300A0F3E000E00BBF02C007900D92A430B1074B
S11300B0D9F721E0A4E0B1E001C01D92A133B20759
S11300C0E1F706D143C19CCF99232CF082309105EE
S11300D064F0029729F01092050180E090E0089501
S11300E01092050181E090E0089581E0809305017C
S11300F082E090E0089581309105A1F01CF4892BF1
S113010059F005C08230910599F0039729F01092B7
S1130110040180E090E0089582E08093040181E08E
S113012090E0089584E08093040182E090E00895D3
S113013088E08093040183E090E0089590910501A4
S113014080910401892B85B980E090E008958BE0CB
S1130150809381008DE790E09093890080938800DC
S113016082E080936F001092850010928400809149
S1130170000190910101A0910201B09103018093CB
S1130180060190930701A0930801B09309018FB76A
S113019080688FBF0895EF92FF920F931F93CF93C0
S11301A0DF93CAE0D1E00F2EFEE2EF2EF1E0FF2E46
S11301B0F02D8E014E815F81688579858A819B81CE
S11301C0AC81BD81481759076A077B0758F0EA8557
S11301D0FB85888199810995998388831E821F8272
S11301E018861986F80186819781A085B1850196C4
S11301F0A11DB11D86839783A087B1872C96CE1548
S1130200DF05B9F6DF91CF911F910F91FF90EF9029
S113021008951F920F920FB60F9211240BB60F92EE
S11302202F933F934F935F936F937F938F939F93FA
S1130230AF93BF93EF93FF938091060190910701D1
S1130240A0910801B09109010197A109B109809316
S1130250060190930701A0930801B0930901892B2B
S11302608A2B8B2B89F497DF8091000190910101F7
S1130270A0910201B09103018093060190930701BC
S1130280A0930801B0930901FF91EF91BF91AF9141
S11302909F918F917F916F915F914F913F912F919A
S11302A00F900BBE0F900FBE0F901F901895609388
S11302B00001709301018093020190930301609304
S11302C00601709307018093080190930901089532
S11302D011B88FEF82B984B915B8EAE0F1E021E0F2
S11302E030E03183208388EE93E0A0E0B0E08283A5
S11302F09383A483B583168217821086118644E6FD
S113030050E0538742873587248786879787A08B59
S1130310B18B128A138A148A158A2BE730E0378B43
S1130320268B118E108E828F938FA48FB58F168E8D
S1130330178E10A211A28EE990E093A382A361E02C
S113034070E080E090E0B3DF02DFFFCFF894FFCFEE
S107035001000000A4
S9030000FC
