:1000000045C0000053C0000051C000004FC00000B8
:100010004DC000004BC0000049C0000047C00000B8
:1000200045C0000043C0000041C000003FC00000C8
:100030003DC000003BC0000039C0000037C00000D8
:1000400035C0000033C0000031C000002FC00000E8
:100050002DC000002BC0000029C0000027C00000F8
:1000600025C0000023C0000021C000001FC0000008
:100070001DC000001BC0000019C0000017C0000018
:1000800015C0000013C0000011C0000011241FBEE5
:10009000CFEFD0E4DEBFCDBF21E0A0E0B1E001C0F2
:1000A0001D92A130B207E1F78ED0C1C0A9CFCF9386
:1000B000DF9300D01F92CDB7DEB789836A834B836D
:1000C00080910001882F90E08230910531F18330DA
:1000D00091052CF4009761F00197D9F056C0843057
:1000E000910581F184309105E4F00597E1F14DC06F
:1000F0008981813021F481E08093000149C08A81A7
:10010000813021F482E08093000142C0109200010E
:100110003FC083E0809300013BC084E080930001F6
:1001200037C08981813019F01092000131C08A8175
:10013000813021F485E0809300012AC083E0809320
:10014000000126C08A81813019F01092000120C080
:100150008981813021F485E08093000119C084E019
:100160008093000115C08981813021F084E0809363
:1001700000010EC08A81813021F083E0809300016C
:1001800007C085E08093000103C0109200010000C9
:1001900080910001882F90E08230910541F08530F8
:1001A000910541F0019741F48B818F5F06C08B81EF
:1001B000815003C080E001C08B810F900F900F90A1
:1001C000DF91CF910895CF93DF9300D01F92CDB7E9
:1001D000DEB781E290E0FC01108282E290E02FEF36
:1001E000FC01208387E290E02FEFFC01208388E26E
:1001F00090E0FC0110821A821B8287E0898380E2F2
:1002000090E0FC01808181708A8380E290E0FC01B3
:100210008081869581708B8349816B818A8147DFDC
:10022000898388E290E02981FC012083E8CFF8945B
:02023000FFCFFE
:00000001FF
