:1000000045C0000060C000005EC000005CC0000091
:100010005AC0000058C0000056C0000054C0000084
:1000200052C0000050C000004EC000004CC0000094
:100030004AC00000C5C0000046C0000044C0000027
:1000400042C0000040C000003EC000003CC00000B4
:100050003AC0000038C0000036C0000034C00000C4
:1000600032C0000030C000002EC000002CC00000D4
:100070002AC0000028C0000026C0000024C00000E4
:1000800022C0000020C000001EC0000011241FBEBE
:10009000CFEFD0E4DEBFCDBF11E0A0E0B1E0E2EEF3
:1000A000F3E000E00BBF02C007900D92A231B10750
:1000B000D9F721E0A2E1B1E001C01D92A731B2075A
:1000C000E1F7D1D08CC19CCF181619065CF00895C9
:1000D000000021503109E1F74F5F5F4F841795070A
:1000E00019F4089540E050E027E033E0F1CF5E9846
:1000F00088B95F9A00005F9882E090E0E5CF0895AC
:1001000081E0F5CF0895813118F48158F0CF08953A
:100110008155EDCF089584E690E0D6DF88E3E7DFF0
:1001200086E0E5DF8FE0E3DF81E0E1DF8AE090E079
:10013000CBCF08955E9A88B95F9A00005F9881E0FE
:1001400090E0C2CF08950F931F93CF93DF93182FA2
:10015000EB01D6DF8881882351F001E0010F812F68
:10016000D2DF8991E7DF102F88818111F6CFDF91EF
:10017000CF911F910F9108958BE0809381008DE7BF
:1001800090E0909389008093880082E080936F00D4
:1001900010928500109284008091000190910101DD
:1001A000A0910201B0910301809312019093130179
:1001B000A0931401B09315018FB780688FBF089585
:1001C0001F920F920FB60F9211248F939F93AF93AC
:1001D000BF938091120190911301A0911401B091ED
:1001E00015010197A109B1098093120190931301A0
:1001F000A0931401B0931501892B8A2B8B2B99F4B2
:1002000081E0809316018091000190910101A091FD
:100210000201B09103018093120190931301A09306
:100220001401B0931501BF91AF919F918F910F90E1
:100230000FBE0F901F9018956093000170930101FD
:100240008093020190930301609312017093130154
:1002500080931401909315010895EAE7F0E08081FE
:10026000806E80830895CF93DF93CDB7DEB7A497D8
:100270000FB6F894DEBF0FBECDBF11B88FEF82B9B5
:1002800084B915B887B918B88AB91BB8E6DF43DF57
:1002900064EF71E080E090E0CFDF6EDFC12CD12C05
:1002A0000F2EF8E7AF2EB12CF02D0F2EF4E08F2E8D
:1002B000F1E09F2EF02D0F2EF7E06F2EF1E07F2E54
:1002C000F02D0F2EFAE04F2EF1E05F2EF02DCE0133
:1002D00001967C01F5010081118105B91BB910DF80
:1002E00081E011DFC016D10630F00C151D0530F08D
:1002F000C42CD52C05C0C82CD92C02C0C62CD72C98
:10030000198242E050E0BE016B5E7F4FC80134D0DD
:10031000D7010D900020E9F7119785E0EDE0F1E0BD
:1003200001900D928A95E1F74AE050E0BE016B5EC4
:100330007F4FC70111D042E050E06C2D7D2DC701E9
:100340000BD0B70181E0FFDE809116018823E1F335
:10035000109216016801BECFFB01DC010D90002058
:10036000E9F711974150504028F0019000200D927C
:10037000C9F708951C9208954532510518F442308A
:1003800008F004C0FB011082CB010895BB27FB01DC
:100390005527AA27880F991FAA1FA41710F0A41B7E
:1003A00083955051B9F7A05DAA3308F0A95DA193D8
:1003B000009779F7B111B1931192CB0100C0DC0124
:1003C000FC01672F71917723E1F7329704C07C918C
:1003D0006D9370836291AE17BF07C8F30895F894C8
:0203E000FFCF4D
:1003E20001000000202B00202D002020004144436A
:0203F2002000E9
:00000001FF
